:020000040800F2
:100000000028002025170008A1150008A7150008E2
:10001000AD150008B3150008B91500080000000070
:10002000000000000000000000000000BF150008F4
:10003000CB15000800000000D7150008E3150008E4
:100040006D1700086D1700086D1700086D17000880
:100050006D1700086D1700086D1700086D17000870
:100060006D1700086D1700086D1700086D17000860
:100070006D1700086D1700086D1700086D17000850
:100080006D1700086D1700086D1700086D17000840
:100090006D1700086D1700086D1700086D17000830
:1000A0006D1700086D1700086D1700086D17000820
:1000B000F11500086D170008000000006D1700081A
:1000C0006D17000800000000000000006D17000818
:1000D000000000006D1700086D1700080000000008
:1000E0006D1700086D1700086D170008000000006C
:1000F0000000000000000000000000000000000000
:0C01000000000000000000005FF808F1A3
:10010C0010B5054C237833B9044B13B10448AFF345
:10011C0000800123237010BD7C0000200000000033
:10012C009C2D000808B5034B1BB103490348AFF3E2
:10013C00008008BD00000000800000209C2D0008FD
:10014C0080B483B000AF7860094A7B6852F82330E2
:10015C00012B06D1064A7B68002142F823100123AB
:10016C0000E0002318460C37BD4680BC704700BF2A
:10017C009800002080B483B000AF7860044A7B689C
:10018C00012142F8231000BF0C37BD4680BC7047DC
:10019C009800002080B582B000AF00237B608CE01B
:1001AC004A4A7B6852F8232049497B6841F823204E
:1001BC00484A7B6852F8232044497B6841F8232045
:1001CC007B68022B21D07B68022B2ADC7B68002BFE
:1001DC0003D07B68012B0CD023E04FF400513E4838
:1001EC0001F0AAFD034619463A4A7B6842F82310EF
:1001FC0017E04FF48041384801F09EFD0346194644
:10020C00344A7B6842F823100BE04FF4004132482B
:10021C0001F092FD034619462E4A7B6842F82310E2
:10022C0000BF2B4A7B6852F8232028497B6851F881
:10023C0023309A423ED1254A7B6852F82320254927
:10024C007B6851F823309A4234D1244A7B6852F8A7
:10025C00232020497B6851F823309A4216D01D4A3E
:10026C007B6852F823201D497B6841F82320194AEA
:10027C007B6852F82330002B1CD17868FFF77AFF8B
:10028C00174A7B68C82142F8231013E0144A7B6894
:10029C0052F823305A1E12497B6841F82320104A29
:1002AC007B6852F82330002B04D10C4A7B68012167
:1002BC0042F823107B6801337B607B68022B7FF74D
:1002CC006FAF00BF00BF0837BD4680BD0C000020DB
:1002DC000000002018000020001001402400002025
:1002EC003000002080B500AF924B1B68012B13D15E
:1002FC00192001F07BF8904B1B68184600F0A0FC0D
:10030C008D4B1B6801335A4203F0030302F00302C6
:10031C0058BF5342884A1360884B1B68013B042B1F
:10032C0000F2FD8001A252F823F000BF4D0300083B
:10033C0075030008E703000851040008C104000815
:10034C007F4B1B687F4A13607F4B1B687F4A13608F
:10035C007A4B02221A607C4B1B68642202FB03F36B
:10036C00184601F01BF8E3E0764B1B68184600F0CA
:10037C00FDFC764B1B68184600F01CFD01F068F97B
:10038C0001F0A2F901F0ACF9714B1B68012B17D1EC
:10039C00704B1B68642202FB03F3184600F0FEFF4F
:1003AC00674B1A68684B1B68D31A664A1360694B13
:1003BC001B68664A1360614B03221A6001F022F934
:1003CC000020FFF7BDFE0346012B40F0AA8001F090
:1003DC0019F95A4B0B221A60A3E05A4B1B681846AA
:1003EC0000F0C4FC594B1B68184600F0E3FC01F00C
:1003FC002FF901F05DF901F073F9554B1B68012BD6
:10040C0014D1514B1B68642202FB03F3184600F015
:10041C00C5FF4D4B1B684B4A1360494B1B684B4A3D
:10042C00136001F0EFF8454B04221A600020FFF72F
:10043C0087FE0346012B76D101F0E4F83F4B0B22EB
:10044C001A6070E03F4B1B68184600F08FFC3F4B66
:10045C001B68184600F0AEFC01F012F901F01CF913
:10046C0001F03EF93A4B1B68012B17D1394B1B6835
:10047C00642202FB03F3184600F090FF354B1B6817
:10048C00304A13602E4B1A682F4B1B68D31A2F4A15
:10049C00136001F0B7F8294B05221A600020FFF712
:1004AC004FFE0346012B40D101F0ACF8234B0B223D
:1004BC001A603AE0234B1B68184600F057FC234B9C
:1004CC001B68184600F076FC01F0CEF801F0E4F859
:1004DC0001F006F91E4B1B68012B14D11A4B1B683B
:1004EC00642202FB03F3184600F058FF144B1B6800
:1004FC00144A1360144B1B68144A136001F082F801
:10050C000E4B02221A600020FFF71AFE0346012B45
:10051C000DD101F077F8094B0B221A6007E000BFF0
:10052C0006E000BF04E000BF02E000BF00E000BF37
:10053C0000BF80BDC8000020AC000020A800002037
:10054C003C000020540000204400002058000020F3
:10055C00B80000204000002080B500AF714B1B6834
:10056C00012B13D10A2000F041FF6F4B1B6818467A
:10057C0000F066FB6C4B1B6801335A4203F003031B
:10058C0002F0030258BF5342674A1360674B1B6863
:10059C000B3B032B00F2BC8001A252F823F000BFEE
:1005AC00BD050008C90500083B060008AF06000899
:1005BC005E4B0C221A60192000F004FF5C4B0122E8
:1005CC001A605B4B1B68184600F0D0FB594B1B683C
:1005DC00002B0BD1584B1B68184600F0EBFB554B0E
:1005EC0001221A60544B1B68544A1360544B1B680D
:1005FC00012B0AD1192000F0E5FE1021514801F021
:10060C00CAFB80214F4801F0C6FB0020FFF798FD84
:10061C000346012B7ED100F0F5FF192000F0D2FE2D
:10062C00444B00221A60414B0D221A6072E0404B81
:10063C0002221A603E4B1B68184600F097FB3D4B9C
:10064C001B68002B0BD1404B1B68184600F0B2FB0B
:10065C00384B01221A603C4B1B683C4A1360384BE8
:10066C001B68012B0BD1192000F0ACFE2021354862
:10067C0001F091FB4FF48071324801F08CFB0020AB
:10068C00FFF75EFD0346012B46D100F0BBFF19209E
:10069C0000F098FE274B00221A60244B0E221A60A1
:1006AC003AE0234B03221A60214B1B68184600F0DA
:1006BC005DFB204B1B68002B0BD1254B1B68184690
:1006CC0000F078FB1B4B01221A60214B1B68214A5E
:1006DC0013601B4B1B68012B0BD1192000F072FE11
:1006EC004021184801F057FB4FF40071154801F0F8
:1006FC0052FB0020FFF724FD0346012B0ED100F026
:10070C0081FF0C4B00221A60084B01221A6005E095
:10071C0000BF04E000BF02E000BF00E000BF00BF6C
:10072C0080BD00BFC8000020AC000020A800002045
:10073C005C000020A40000203C00002048000020A9
:10074C00C000002000080140400000204C000020A8
:10075C00440000205000002080B500AF664B1B68A1
:10076C00012B13D10A2000F041FE644B1B68184684
:10077C0000F066FA614B1B6801335A4203F0030325
:10078C0002F0030258BF53425C4A13605C4B1B6877
:10079C000E2B74D00E2B00F3A6800C2B02D00D2B3D
:1007AC0034D0A0E0574B1B68184600F0DFFA01204C
:1007BC00FFF7C6FC0346012B11D1534B1B680133C9
:1007CC00514A1360504B1B68632B03DD4F4B1B6866
:1007DC004D4A13604C4B1B68184600F0EBFA022094
:1007EC00FFF7AEFC0346012B7FD1474B1B68474AF2
:1007FC001360464B1A68464B1B68D31A454A136064
:10080C00424B1B68184600F0D5FA6EE03D4B1B6856
:10081C00184600F0ABFA0120FFF792FC0346012BBF
:10082C0011D13D4B1B6801333B4A13603A4B1B689B
:10083C00632B03DD364B1B68374A1360364B1B6842
:10084C00184600F0B7FA0220FFF77AFC0346012B9A
:10085C004DD1314B1B68184600F0ACFA2E4B1B687F
:10086C002B4A13602A4B1A682A4B1B681344274ADD
:10087C001360274B1B68184600F09CFA37E0214B9D
:10088C001B68184600F072FA0120FFF759FC03466A
:10089C00012B11D1214B1B680133204A13601F4BD4
:1008AC001B68632B03DD1B4B1B681C4A13601B4B23
:1008BC001B68184600F07EFA0220FFF741FC034645
:1008CC00012B16D1154B1B68124A1360114B1A6879
:1008DC000F4B1B6813440D4A13600E4B1B681846D4
:1008EC0000F068FA05E000BF04E000BF02E000BFC2
:1008FC0000E000BF00BF80BDC8000020AC0000209D
:10090C00A80000205C000020480000203C000020D3
:10091C0040000020440000204C000020500000202B
:10092C0080B582B000AF78607B68092B00F28081C3
:10093C0001A252F823F000BF6D090008B5090008A8
:10094C00FD090008450A00088D0A0008D50A0008B0
:10095C001D0B0008650B0008AD0B0008F50B00081B
:10096C0000220121B54801F0FEF900220221B34812
:10097C0001F0F9F900220421B04801F0F4F9002249
:10098C000821AE4801F0EFF900221021AB4801F02C
:10099C00EAF900222021A94801F0E5F901224021C1
:1009AC00A64801F0E0F944E101220121A34801F03D
:1009BC00DAF900220221A14801F0D5F90022042124
:1009CC009E4801F0D0F9012208219C4801F0CBF996
:1009DC0001221021994801F0C6F9012220219748E3
:1009EC0001F0C1F901224021944801F0BCF920E149
:1009FC0000220121914801F0B6F9002202218F4812
:100A0C0001F0B1F9012204218C4801F0ACF900226B
:100A1C0008218A4801F0A7F900221021874801F02B
:100A2C00A2F901222021854801F09DF900224021E4
:100A3C00824801F098F9FCE0002201217F4801F086
:100A4C0092F9002202217D4801F08DF90022042147
:100A5C007A4801F088F900220821784801F083F9DE
:100A6C0001221021754801F07EF9012220217348E2
:100A7C0001F079F900224021704801F074F9D8E0B6
:100A8C00012201216D4801F06EF9002202216B4810
:100A9C0001F069F900220421684801F064F901228F
:100AAC000821664801F05FF901221021634801F02A
:100ABC005AF900222021614801F055F90022402109
:100ACC005E4801F050F9B4E0002201215B4801F0CE
:100ADC004AF901220221594801F045F9002204216A
:100AEC00564801F040F900220821544801F03BF926
:100AFC0001221021514801F036F9002220214F48E3
:100B0C0001F031F9002240214C4801F02CF990E021
:100B1C0000220121494801F026F90122022147480F
:100B2C0001F021F900220421444801F01CF90022B3
:100B3C000821424801F017F9002210213F4801F02A
:100B4C0012F9002220213D4801F00DF9002240212C
:100B5C003A4801F008F96CE000220121374801F015
:100B6C0002F900220221354801F0FDF8002204218F
:100B7C00324801F0F8F801220821304801F0F3F86E
:100B8C00012210212D4801F0EEF8012220212B48E2
:100B9C0001F0E9F801224021284801F0E4F848E08E
:100BAC0000220121254801F0DEF800220221234811
:100BBC0001F0D9F800220421204801F0D4F80022D9
:100BCC0008211E4801F0CFF8002210211B4801F02B
:100BDC00CAF800222021194801F0C5F80022402152
:100BEC00164801F0C0F824E000220121134801F05E
:100BFC00BAF800220221114801F0B5F800220421B4
:100C0C000E4801F0B0F8002208210C4801F0ABF8B6
:100C1C0001221021094801F0A6F8002220210748E2
:100C2C0001F0A1F800224021044801F09CF800E0FA
:100C3C0000BF00BF0837BD4680BD00BF000C01409F
:100C4C0080B582B000AF78607B68032B00F28480A3
:100C5C0001A252F823F000BF750C0008B10C00087B
:100C6C00ED0C0008290D000800224FF480613D486E
:100C7C0001F079F801224FF400613A4801F073F861
:100C8C0001224FF48051374801F06DF801224FF4E6
:100C9C000051344801F067F8334B1B681846FFF7D6
:100CAC003FFE5AE001224FF480612E4801F05BF8C0
:100CBC0000224FF400612B4801F055F801224FF44B
:100CCC008051284801F04FF801224FF4005125487B
:100CDC0001F049F8244B5B681846FFF721FE3CE015
:100CEC0001224FF480611F4801F03DF801224FF4BE
:100CFC0000611C4801F037F800224FF4805119486C
:100D0C0001F031F801224FF40051164801F02BF894
:100D1C00154B9B681846FFF703FE1EE001224FF4AB
:100D2C008061104801F01FF801224FF400610D485A
:100D3C0001F019F801224FF480510A4801F013F820
:100D4C0000224FF40051074801F00DF8064BDB6808
:100D5C001846FFF7E5FD00E000BF00BF0837BD46B1
:100D6C0080BD00BF000801406000002080B483B04B
:100D7C0000AF78607B680D4A82FB03129210DB1780
:100D8C00D31A0B4A13607968084B83FB01239A1022
:100D9C00CB17D21A13469B0013445B00CA1A044BA0
:100DAC005A6000BF0C37BD4680BC704767666666EC
:100DBC006000002080B483B000AF78607B680D4A7F
:100DCC0082FB03129210DB17D31A0B4A93607968DB
:100DDC00084B83FB01239A10CB17D21A13469B00A6
:100DEC0013445B00CA1A044BDA6000BF0C37BD46D3
:100DFC0080BC7047676666666000002080B500AFF7
:100E0C0000F0B0FC00F03CF800F0C2F800F074F810
:100E1C00144801F005FC144B01221A600A2000F062
:100E2C00E5FA642000F0F6FA00F086F90A220021B7
:100E3C000E4800F057FA0A2200210D4800F052FA31
:100E4C000A2200210B4800F04DFA0A2200210A4820
:100E5C0000F048FA0A220021084800F043FA00F09A
:100E6C00F7F9FCE7D4000020A80000204914000882
:100E7C00A1010008F10200086505000865070008DB
:100E8C0080B590B000AF07F1180328220021184656
:100E9C0001F076FF3B1D00221A605A609A60DA60FE
:100EAC001A610223BB610123BB621023FB62002386
:100EBC007B6307F11803184600F086FF0346002BEE
:100ECC0001D000F0DFF80F237B600023BB60002310
:100EDC00FB6000233B6100237B613B1D0021184616
:100EEC0001F0F2F90346002B01D000F0CBF800BF63
:100EFC004037BD4680BD000080B586B000AF07F11D
:100F0C00080300221A605A609A60DA603B4600229D
:100F1C001A605A601D4B4FF080421A601B4B41F611
:100F2C003F725A60194B00229A60184B0922DA6002
:100F3C00164B00221A61154B00229A61134801F0DE
:100F4C001FFB0346002B01D000F09CF84FF480539C
:100F5C00BB6007F1080319460C4801F09DFC0346E1
:100F6C00002B01D000F08EF800233B6000237B6047
:100F7C003B461946054801F075FE0346002B01D08F
:100F8C0000F080F800BF1837BD4680BDD4000020AB
:100F9C0080B588B000AF07F1100300221A605A60C8
:100FAC009A60DA602E4B9B692D4A43F010039361D3
:100FBC002B4B9B6903F01003FB60FB68284B9B6970
:100FCC00274A43F004039361254B9B6903F0040308
:100FDC00BB60BB68224B9B69214A43F008039361B9
:100FEC001F4B9B6903F008037B607B68002243F670
:100FFC00F0711C4800F0B7FE00227F211A4800F067
:10100C00B2FE4FF460433B6100237B610123BB6163
:10101C0007F110031946154800F014FD43F6F07360
:10102C003B6101237B610023BB610223FB6107F160
:10103C00100319460B4800F005FD7F233B6101238B
:10104C007B610023BB610223FB6107F1100319468E
:10105C00054800F0F7FC00BF2037BD4680BD00BF3F
:10106C000010024000080140000C0140001001403B
:10107C0080B582B000AF786000F07CF800BF083714
:10108C00BD4680BD80B400AF72B600BFFEE7000065
:10109C0080B485B000AF78601F497A6813469B0016
:1010AC0013449B000B441B68002B05D11B4B3222B5
:1010BC001A703323FB7301E03423FB7316497A68EF
:1010CC0013469B0013449B000B4400221A601249E8
:1010DC007A6813469B0013449B000B440433002294
:1010EC001A600D497A6813469B0013449B000B440D
:1010FC00083300221A6008497A6813469B0013448F
:10110C009B000B440C3300221A70FB7B18461437DF
:10111C00BD4680BC704700BF1C010020B000002001
:10112C0080B400AF00BFBD4680BC704780B400AF38
:10113C0000BFBD4680BC704780B582B000AF0023B5
:10114C00FB7106E0FB791846FFF7A2FFFB79013330
:10115C00FB71FB79272BF5D9054B00221A70FFF791
:10116C00E5FFFFF7DDFF00BF0837BD4680BD00BFC0
:10117C00B000002080B483B000AF0023FB715CE0B2
:10118C00FA79324913469B0013449B000B441B68AD
:10119C00002B4FD0FA792D4913469B0013449B002A
:1011AC000B4404331B68002B32D1FA7927491346C0
:1011BC009B0013449B000B440C331B78FA790133CE
:1011CC00D8B2224913469B0013449B000B440C33AA
:1011DC0002461A70FA791D4913469B0013449B0072
:1011EC000B4408331B68002B24D0F979FA79174883
:1011FC000B469B000B449B000344083319681348AF
:10120C0013469B0013449B0003440433196011E004
:10121C00FA790E4913469B0013449B000B4404338C
:10122C001B68591E094813469B0013449B0003443A
:10123C0004331960FB790133FB71FB79272B9FD9A0
:10124C0000BF00BF0C37BD4680BC70471C0100209E
:10125C0080B582B000AF0023FB7139E0FA792049E8
:10126C0013469B0013449B000B440C331B78002B40
:10127C002BD0FA791A4913469B0013449B000B445C
:10128C001B689847FA79164913469B0013449B0038
:10129C000B440C331B78013BD8B2114913469B000D
:1012AC0013449B000B440C3302461A70FA790C4918
:1012BC0013469B0013449B000B4408331B68002B04
:1012CC0003D1FB791846FFF7E3FEFB790133FB7181
:1012DC00FB79272BC2D900BF00BF0837BD4680BDA4
:1012EC001C01002080B487B000AFF860B9607A6050
:1012FC000023FB7502E0FB7D0133FB75FA7D24496D
:10130C0013469B0013449B000B441B68002B02D01C
:10131C00FB7D272BEFD9FB7D282B04D11D4B3522D0
:10132C001A7028232FE0FA7D194913469B001344A9
:10133C009B000B44FA681A60FA7DBB681649A1FB46
:10134C000313D908124813469B0013449B00034413
:10135C0004331960FA7D7B680F49A1FB0313D9088C
:10136C000B4813469B0013449B000344083319603D
:10137C00FA7D074913469B0013449B000B440C3326
:10138C0000221A70FB7D18461C37BD4680BC704786
:10139C001C010020B0000020CDCCCCCC80B483B09C
:1013AC0000AF7860054A7B681360054B00221A6019
:1013BC0000BF0C37BD4680BC704700BFB400002096
:1013CC00B800002080B483B000AF7860054A7B6819
:1013DC001360054B00221A6000BF0C37BD4680BC61
:1013EC00704700BFBC000020C000002080B483B058
:1013FC0000AF7860054A7B681360054B00221A60C9
:10140C0000BF0C37BD4680BC704700BFC400002035
:10141C00C800002080B483B000AF7860054A7B68B8
:10142C001360054B00221A6000BF0C37BD4680BC10
:10143C00704700BFCC000020D000002080B400AF6B
:10144C00214B1B68002B0BDD1F4B1B68013B1E4AFD
:10145C0013601D4B1B68002B02DC1C4B01221A6015
:10146C001B4B1B68002B0BDD194B1B68013B184AEF
:10147C001360174B1B68002B02DC164B01221A6001
:10148C00154B1B68002B0BDD134B1B68013B124AE1
:10149C001360114B1B68002B02DC104B01221A60ED
:1014AC000F4B1B68002B0BDD0D4B1B68013B0C4AD3
:1014BC0013600B4B1B68002B02DC0A4B01221A60D9
:1014CC0000BFBD4680BC7047B4000020B8000020AF
:1014DC00BC000020C0000020C4000020C800002078
:1014EC00CC000020D000002080B485B000AF154B9C
:1014FC009B69144A43F001039361124B9B6903F0FF
:10150C000103BB60BB680F4BDB690E4A43F0805391
:10151C00D3610C4BDB6903F080537B607B680A4B17
:10152C005B68FB60FB6823F0E063FB60FB6843F0E7
:10153C008063FB60044AFB68536000BF1437BD46F0
:10154C0080BC7047001002400000014080B584B0A0
:10155C0000AF78607B681B68B3F1804F13D10C4BE4
:10156C00DB690B4A43F00103D361094BDB6903F0E0
:10157C000103FB60FB68002200211C2000F02BFA09
:10158C001C2000F044FA00BF1037BD4680BD00BFE0
:10159C000010024080B400AFFEE780B400AFFEE75D
:1015AC0080B400AFFEE780B400AFFEE780B400AFBC
:1015BC00FEE780B400AF00BFBD4680BC704780B46E
:1015CC0000AF00BFBD4680BC704780B400AF00BF09
:1015DC00BD4680BC704780B500AF00F009F900BF74
:1015EC0080BD000080B500AF024801F065F800BF77
:1015FC0080BD00BFD400002080B400AF00BFBD464A
:10160C0080BC704780B500AF002210210F4800F05D
:10161C00AAFB002280210D4800F0A5FB002220210E
:10162C000A4800F0A0FB00224FF48071074800F03C
:10163C009AFB00224021054800F095FB00224FF454
:10164C000071024800F08FFB00BF80BD0008014014
:10165C0080B500AF01221021024800F084FB00BFCE
:10166C0080BD00BF0008014080B500AF01222021E1
:10167C00024800F078FB00BF80BD00BF00080140AD
:10168C0080B500AF01224021024800F06CFB00BF86
:10169C0080BD00BF0008014080B500AF0122802151
:1016AC00024800F060FB00BF80BD00BF0008014095
:1016BC0080B500AF01224FF48071024800F053FB5B
:1016CC0000BF80BD0008014080B500AF01224FF47F
:1016DC000071024800F047FB00BF80BD00080140CC
:1016EC0080B500AF094B1B68012B0CD16420FFF7B0
:1016FC0091FE074B1B68013B054A1360054B1B68A9
:10170C00013B044A136000BF80BD00BFD000002025
:10171C005400002058000020FFF76EFF0B480C49C6
:10172C000C4A002302E0D458C4500433C4188C4231
:10173C00F9D3094A094C002301E013600432A24298
:10174C00FBD301F0F9FAFFF759FB704700000020BA
:10175C007C000020E02D00087C00002040040020CC
:10176C00FEE7000080B500AF084B1B68074A43F04A
:10177C0010031360032000F023F90F2000F008F889
:10178C00FFF7B2FE0023184680BD00BF00200240C8
:10179C0080B582B000AF7860124B1A68124B1B7880
:1017AC0019464FF47A73B3FBF1F3B2FBF3F318461B
:1017BC0000F03BF90346002B01D001230EE07B68BF
:1017CC000F2B0AD8002279684FF0FF3000F003F994
:1017DC00064A7B681360002300E001231846083793
:1017EC00BD4680BD700000207800002074000020F1
:1017FC0080B400AF054B1B781A46054B1B6813448D
:10180C00034A136000BFBD4680BC704778000020BF
:10181C003C04002080B400AF024B1B681846BD4648
:10182C0080BC70473C04002080B485B000AF786069
:10183C007B6803F00703FB600C4BDB68BB60BA688A
:10184C004FF6FF031340BB60FB681A02BB681343DF
:10185C0043F0BF6343F40033BB60044ABB68D360FE
:10186C0000BF1437BD4680BC704700BF00ED00E0E0
:10187C0080B400AF044BDB681B0A03F00703184667
:10188C00BD4680BC704700BF00ED00E080B483B063
:10189C0000AF0346FB7197F90730002B0BDBFB798C
:1018AC0003F01F02064997F907305B09012000FA83
:1018BC0002F241F8232000BF0C37BD4680BC7047B4
:1018CC0000E100E080B483B000AF03463960FB71E7
:1018DC0097F90730002B0ADB3B68DAB20C4997F911
:1018EC0007301201D2B20B4483F800230AE03B68A4
:1018FC00DAB20849FB7903F00F03043B1201D2B2B0
:10190C000B441A7600BF0C37BD4680BC704700BF35
:10191C0000E100E000ED00E080B489B000AFF860B9
:10192C00B9607A60FB6803F00703FB61FB69C3F1E4
:10193C000703042B28BF0423BB61FB690433062B6C
:10194C0002D9FB69033B00E000237B614FF0FF32BF
:10195C00BB6902FA03F3DA43BB681A407B699A400D
:10196C004FF0FF317B6901FA03F3D9437B680B40DD
:10197C00134318462437BD4680BC704780B582B0EF
:10198C0000AF78607B68013BB3F1807F01D301230A
:10199C000FE00A4A7B68013B53600F214FF0FF3088
:1019AC00FFF790FF054B00229A60044B07221A6048
:1019BC00002318460837BD4680BD00BF10E000E08C
:1019CC0080B582B000AF78607868FFF72DFF00BF5C
:1019DC000837BD4680BD80B586B000AF0346B96000
:1019EC007A60FB7300237B61FFF742FF78617A68B2
:1019FC00B9687869FFF790FF024697F90F301146E6
:101A0C001846FFF75FFF00BF1837BD4680BD80B595
:101A1C0082B000AF0346FB7197F907301846FFF709
:101A2C0035FF00BF0837BD4680BD80B582B000AF22
:101A3C0078607868FFF7A2FF034618460837BD4662
:101A4C0080BD000080B48BB000AF7860396000239B
:101A5C007B6200233B6248E101227B6A02FA03F3BA
:101A6C00FB613B681B68FA691340BB61BA69FB698F
:101A7C009A4240F037813B685B68A34A93425ED040
:101A8C00A14A934275D8A14A934258D09F4A934297
:101A9C006FD89F4A934252D09D4A934269D89D4A2F
:101AAC0093424CD09B4A934263D89B4A934246D074
:101ABC00994A93425DD8122B2AD8122B59D801A2DD
:101ACC0052F823F04B1B0008251B0008371B00089D
:101ADC00791B00087F1B00087F1B00087F1B000878
:101AEC007F1B00087F1B00087F1B00087F1B000862
:101AFC007F1B00087F1B00087F1B00087F1B000852
:101B0C007F1B00087F1B00082D1B0008411B0008D1
:101B1C00824A934213D02CE03B68DB683B6229E09D
:101B2C003B68DB6804333B6224E03B68DB680833CA
:101B3C003B621FE03B68DB680C333B621AE03B689E
:101B4C009B68002B02D104233B6213E03B689B682B
:101B5C00012B05D108233B627B68FA691A6109E005
:101B6C0008233B627B68FA695A6103E000233B62FD
:101B7C0000E000BFBB69FF2B01D87B6801E07B68EC
:101B8C0004337B61BB69FF2B02D87B6A9B0002E0AC
:101B9C007B6A083B9B003B617B691A680F213B69A0
:101BAC0001FA03F3DB431A40396A3B6901FA03F388
:101BBC001A437B691A603B685B6803F08053002B07
:101BCC0000F09080564B9B69554A43F0010393619A
:101BDC00534B9B6903F00103BB60BB68514A7B6AA2
:101BEC009B08023352F82330FB607B6A03F003033B
:101BFC009B000F2202FA03F3DB43FA681340FB60ED
:101C0C007B68494A93420DD07B68484A934207D07F
:101C1C007B68474A934201D1022304E0032302E08C
:101C2C00012300E000237A6A02F003029200934041
:101C3C00FA681343FB603B497B6A9B080233FA68E2
:101C4C0041F823203B685B6803F48013002B06D01B
:101C5C00384B9A683749BB6913438B6006E0354BA8
:101C6C009A68BB69DB43334913408B603B685B6804
:101C7C0003F40013002B06D02E4BDA682D49BB69F8
:101C8C001343CB6006E02B4BDA68BB69DB43294975
:101C9C001340CB603B685B6803F40033002B06D029
:101CAC00244B5A682349BB6913434B6006E0214B14
:101CBC005A68BB69DB431F4913404B603B685B6848
:101CCC0003F48033002B06D01A4B1A681949BB69F0
:101CDC0013430B6006E0174B1A68BB69DB431549CD
:101CEC0013400B607B6A01337B623B681A687B6A2A
:101CFC0022FA03F3002B7FF4AFAE00BF00BF2C37EA
:101D0C00BD4680BC704700BF00003210000031108F
:101D1C000000221000002110000012100000111011
:101D2C00001002400000014000080140000C01407E
:101D3C00001001400004014080B485B000AF786011
:101D4C000B467B807B689A687B881340002B02D003
:101D5C000123FB7301E00023FB73FB7B1846143754
:101D6C00BD4680BC704780B483B000AF78600B4632
:101D7C007B8013467B707B78002B03D07A887B6842
:101D8C001A6103E07B881A047B681A6100BF0C3768
:101D9C00BD4680BC704780B485B000AF78600B4600
:101DAC007B807B68DB68FB607A88FB6813401A04D5
:101DBC00FB68D9437B880B401A437B681A6100BFD0
:101DCC001437BD4680BC704780B586B000AF7860D4
:101DDC007B68002B01D101236CE27B681B6803F04C
:101DEC000103002B00F08780924B5B6803F00C031F
:101DFC00042B0CD08F4B5B6803F00C03082B12D117
:101E0C008C4B5B6803F48033B3F5803F0BD1894B6B
:101E1C001B6803F40033002B6CD07B685B68002BD1
:101E2C0068D1012346E27B685B68B3F5803F06D13D
:101E3C00804B1B687F4A43F4803313602EE07B6831
:101E4C005B68002B0CD17B4B1B687A4A23F48033E4
:101E5C001360784B1B68774A23F4802313601DE0D2
:101E6C007B685B68B3F5A02F0CD1724B1B68714A71
:101E7C0043F4802313606F4B1B686E4A43F480332A
:101E8C0013600BE06B4B1B686A4A23F480331360BE
:101E9C00684B1B68674A23F4802313607B685B687C
:101EAC00002B13D0FFF7B6FC386108E0FFF7B2FC4B
:101EBC0002463B69D31A642B01D90323FAE15D4B2B
:101ECC001B6803F40033002BF0D014E0FFF7A2FCE6
:101EDC00386108E0FFF79EFC02463B69D31A642B7D
:101EEC0001D90323E6E1534B1B6803F40033002BA9
:101EFC00F0D100E000BF7B681B6803F00203002BED
:101F0C0063D04C4B5B6803F00C03002B0BD0494B9C
:101F1C005B6803F00C03082B1CD1464B5B6803F485
:101F2C008033002B16D1434B1B6803F00203002BAC
:101F3C0005D07B681B69012B01D00123BAE13D4B15
:101F4C001B6823F0F8027B685B69DB00394913439B
:101F5C000B603AE07B681B69002B20D0364B0122CA
:101F6C001A60FFF757FC386108E0FFF753FC024694
:101F7C003B69D31A022B01D903239BE12D4B1B6820
:101F8C0003F00203002BF0D02A4B1B6823F0F8025D
:101F9C007B685B69DB00274913430B6015E0264B1C
:101FAC0000221A60FFF736FC386108E0FFF732FCBC
:101FBC0002463B69D31A022B01D903237AE11D4B4C
:101FCC001B6803F00203002BF0D17B681B6803F045
:101FDC000803002B3AD07B689B69002B19D0174B58
:101FEC0001221A60FFF716FC386108E0FFF712FCBB
:101FFC0002463B69D31A022B01D903235AE10D4B3C
:10200C005B6A03F00203002BF0D0012000F09AFA77
:10201C001CE00A4B00221A60FFF7FCFB38610FE052
:10202C00FFF7F8FB02463B69D31A022B08D90323AE
:10203C0040E100BF001002400000424280044242D6
:10204C009E4B5B6A03F00203002BE9D17B681B6893
:10205C0003F00403002B00F0A6800023FB75974BC4
:10206C00DB6903F08053002B0DD1944BDB69934A51
:10207C0043F08053D361914BDB6903F08053BB6019
:10208C00BB680123FB758E4B1B6803F48073002B1C
:10209C0018D18B4B1B688A4A43F480731360FFF78B
:1020AC00B9FB386108E0FFF7B5FB02463B69D31A70
:1020BC00642B01D90323FDE0814B1B6803F480736F
:1020CC00002BF0D07B68DB68012B06D17B4B1B6AA5
:1020DC007A4A43F0010313622DE07B68DB68002B26
:1020EC000CD1764B1B6A754A23F001031362734BB8
:1020FC001B6A724A23F0040313621CE07B68DB68E2
:10210C00052B0CD16D4B1B6A6C4A43F00403136214
:10211C006A4B1B6A694A43F0010313620BE0674B7D
:10212C001B6A664A23F001031362644B1B6A634A01
:10213C0023F0040313627B68DB68002B15D0FFF7D8
:10214C0069FB38610AE0FFF765FB02463B69D31A6D
:10215C0041F28832934201D90323ABE0574B1B6AFF
:10216C0003F00203002BEED014E0FFF753FB3861B1
:10217C000AE0FFF74FFB02463B69D31A41F2883263
:10218C00934201D9032395E04C4B1B6A03F00203E5
:10219C00002BEED1FB7D012B05D1484BDB69474A67
:1021AC0023F08053D3617B68DB69002B00F08180C6
:1021BC00424B5B6803F00C03082B61D07B68DB6936
:1021CC00022B46D13F4B00221A60FFF723FB3861EC
:1021DC0008E0FFF71FFB02463B69D31A022B01D91B
:1021EC00032367E0354B1B6803F00073002BF0D121
:1021FC007B681B6AB3F5803F08D1304B5B6823F4D6
:10220C0000327B689B682D4913434B602B4B5B68FA
:10221C0023F474127B68196A7B685B6A0B43274949
:10222C0013434B60274B01221A60FFF7F3FA386116
:10223C0008E0FFF7EFFA02463B69D31A022B01D9EB
:10224C00032337E01D4B1B6803F00073002BF0D009
:10225C002FE01C4B00221A60FFF7DCFA386108E013
:10226C00FFF7D8FA02463B69D31A022B01D9032394
:10227C0020E0124B1B6803F00073002BF0D118E028
:10228C007B68DB69012B01D1012313E00B4B5B68ED
:10229C00FB60FB6803F480327B681B6A9A4206D1B0
:1022AC00FB6803F470127B685B6A9A4201D00123CD
:1022BC0000E0002318461837BD4680BD00100240D0
:1022CC00007000406000424280B584B000AF78607E
:1022DC0039607B68002B01D10123D0E06A4B1B686D
:1022EC0003F007033A689A4210D9674B1B6823F036
:1022FC00070265493B6813430B60634B1B6803F093
:10230C0007033A689A4201D00123B8E07B681B6846
:10231C0003F00203002B20D07B681B6803F004033E
:10232C00002B05D0594B5B68584A43F4E06353606B
:10233C007B681B6803F00803002B05D0534B5B68CC
:10234C00524A43F460535360504B5B6823F0F002E5
:10235C007B689B684D4913434B607B681B6803F09B
:10236C000103002B40D07B685B68012B07D1474BE6
:10237C001B6803F40033002B15D101237FE07B682D
:10238C005B68022B07D1414B1B6803F00073002BD9
:10239C0009D1012373E03D4B1B6803F00203002BB2
:1023AC0001D101236BE0394B5B6823F003027B689E
:1023BC005B68364913434B60FFF72CFAF8600AE070
:1023CC00FFF728FA0246FB68D31A41F2883293428F
:1023DC0001D9032353E02D4B5B6803F00C027B689F
:1023EC005B689B009A42EBD1274B1B6803F00703F9
:1023FC003A689A4210D2244B1B6823F007022249F8
:10240C003B6813430B60204B1B6803F007033A68CF
:10241C009A4201D0012332E07B681B6803F004036D
:10242C00002B08D0194B5B6823F4E0627B68DB68F7
:10243C00164913434B607B681B6803F00803002BA1
:10244C0009D0124B5B6823F460527B681B69DB007C
:10245C000E4913434B6000F021F802460B4B5B68AE
:10246C001B0903F00F030A49CB5C22FA03F3094A58
:10247C001360094B1B681846FFF78AF900231846AE
:10248C001037BD4680BD00BF002002400010024046
:10249C00B42D0008700000207400002080B487B0B8
:1024AC0000AF0023FB600023BB6000237B61002393
:1024BC007B6000233B611E4B5B68FB60FB6803F099
:1024CC000C03042B02D0082B03D027E0194B3B61E3
:1024DC0027E0FB689B0C03F00F03174AD35C7B606F
:1024EC00FB6803F48033002B10D0114B5B685B0C42
:1024FC0003F00103114AD35CBB607B680D4A02FBFD
:10250C0003F2BB68B2FBF3F37B6104E07B680C4A1B
:10251C0002FB03F37B617B693B6102E0054B3B6192
:10252C0000BF3B6918461C37BD4680BC704700BFD6
:10253C000010024000127A00C42D0008D42D0008AF
:10254C0000093D0080B485B000AF78600A4B1B6871
:10255C000A4AA2FB03235B0A7A6802FB03F3FB60C3
:10256C0000BFFB685A1EFA60002BF9D100BF00BFF8
:10257C001437BD4680BC704770000020D34D6210EC
:10258C0080B582B000AF78607B68002B01D101234D
:10259C0041E07B6893F83D30DBB2002B06D17B68C1
:1025AC00002283F83C207868FEF7D0FF7B6802227B
:1025BC0083F83D207B681A687B6804331946104603
:1025CC0000F056FA7B68012283F846207B680122D2
:1025DC0083F83E207B68012283F83F207B68012230
:1025EC0083F840207B68012283F841207B6801221C
:1025FC0083F842207B68012283F843207B68012208
:10260C0083F844207B68012283F845207B680122F3
:10261C0083F83D20002318460837BD4680BD0000D6
:10262C0080B485B000AF78607B6893F83D30DBB246
:10263C00012B01D0012335E07B68022283F83D2079
:10264C007B681B68DA687B681B6842F00102DA6001
:10265C007B681B68164A934209D07B681B68B3F1F0
:10266C00804F04D07B681B68124A934211D17B685F
:10267C001B689B6803F00703FB60FB68062B10D0FC
:10268C007B681B681A687B681B6842F001021A6041
:10269C0007E07B681B681A687B681B6842F00102C4
:1026AC001A60002318461437BD4680BC704700BF23
:1026BC00002C01400004004080B584B000AF78606D
:1026CC007B681B68DB68FB607B681B681B69BB60F5
:1026DC00BB6803F00203002B20D0FB6803F002035D
:1026EC00002B1BD07B681B686FF002021A617B68A1
:1026FC0001221A777B681B689B6903F00303002B8C
:10270C0003D0786800F098F905E0786800F08BF950
:10271C00786800F09AF97B6800221A77BB6803F09E
:10272C000403002B20D0FB6803F00403002B1BD008
:10273C007B681B686FF004021A617B6802221A77AF
:10274C007B681B689B6903F44073002B03D078688B
:10275C0000F072F905E0786800F065F9786800F02F
:10276C0074F97B6800221A77BB6803F00803002B0E
:10277C0020D0FB6803F00803002B1BD07B681B6880
:10278C006FF008021A617B6804221A777B681B6859
:10279C00DB6903F00303002B03D0786800F04CF9DD
:1027AC0005E0786800F03FF9786800F04EF97B6836
:1027BC0000221A77BB6803F01003002B20D0FB68B3
:1027CC0003F01003002B1BD07B681B686FF010020A
:1027DC001A617B6808221A777B681B68DB6903F433
:1027EC004073002B03D0786800F026F905E0786878
:1027FC0000F019F9786800F028F97B6800221A7744
:10280C00BB6803F00103002B0CD0FB6803F0010341
:10281C00002B07D07B681B686FF001021A61786887
:10282C00FEF726FCBB6803F08003002B0CD0FB6882
:10283C0003F08003002B07D07B681B686FF08002CD
:10284C001A61786800F06FFABB6803F04003002B44
:10285C000CD0FB6803F04003002B07D07B681B688F
:10286C006FF040021A61786800F0F8F8BB6803F06A
:10287C002003002B0CD0FB6803F02003002B07D0A7
:10288C007B681B686FF020021A61786800F042FACE
:10289C0000BF1037BD4680BD80B584B000AF7860F6
:1028AC0039600023FB737B6893F83C30012B01D11A
:1028BC000223B4E07B68012283F83C207B6802226F
:1028CC0083F83D207B681B689B68BB60BB6823F06A
:1028DC007703BB60BB6823F47F43BB607B681B68DA
:1028EC00BA689A603B681B68B3F5005F3ED0B3F5DD
:1028FC00005F00F28780B3F5805F00F08680B3F54F
:10290C00805F7FD8702B1AD0702B7BD8602B50D067
:10291C00602B77D8502B3CD0502B73D8402B58D0F1
:10292C00402B6FD8302B64D0302B6BD8202B60D041
:10293C00202B67D8002B5CD0102B5AD062E07B6820
:10294C0018683B6899683B685A683B68DB6800F01C
:10295C006AF97B681B689B68BB60BB6843F07703B4
:10296C00BB607B681B68BA689A604FE07B6818682C
:10297C003B6899683B685A683B68DB6800F053F920
:10298C007B681B689A687B681B6842F480429A607B
:10299C003CE07B6818683B6859683B68DB681A4602
:1029AC0000F0CAF87B681B685021184600F021F92A
:1029BC002CE07B6818683B6859683B68DB681A46F2
:1029CC0000F0E8F87B681B686021184600F011F9EC
:1029DC001CE07B6818683B6859683B68DB681A46E2
:1029EC0000F0AAF87B681B684021184600F001F93A
:1029FC000CE07B681A683B681B681946104600F0AF
:102A0C00F8F803E00123FB7300E000BF7B680122B0
:102A1C0083F83D207B68002283F83C20FB7B184622
:102A2C001037BD4680BD80B483B000AF786000BF66
:102A3C000C37BD4680BC704780B483B000AF786063
:102A4C0000BF0C37BD4680BC704780B483B000AF6C
:102A5C00786000BF0C37BD4680BC704780B483B033
:102A6C0000AF786000BF0C37BD4680BC70470000DB
:102A7C0080B485B000AF786039607B681B68FB6000
:102A8C007B682B4A934207D07B68B3F1804F03D00D
:102A9C007B68284A934208D1FB6823F07003FB60E3
:102AAC003B685B68FA681343FB607B68204A93427F
:102ABC0007D07B68B3F1804F03D07B681D4A9342EB
:102ACC0008D1FB6823F44073FB603B68DB68FA6851
:102ADC001343FB60FB6823F080023B685B69134384
:102AEC00FB607B68FA681A603B689A687B68DA62FC
:102AFC003B681A687B689A627B680D4A934203D1E3
:102B0C003B681A697B681A637B6801225A617B688F
:102B1C001B6903F00103002B05D07B681B6923F0B4
:102B2C0001027B681A6100BF1437BD4680BC704738
:102B3C00002C01400004004080B487B000AFF86066
:102B4C00B9607A60FB681B6A7B61FB681B6A23F0C7
:102B5C000102FB681A62FB689B693B613B6923F0CD
:102B6C00F0033B617B681B013A6913433B617B6952
:102B7C0023F00A037B617A69BB6813437B61FB68B2
:102B8C003A699A61FB687A691A6200BF1C37BD46C4
:102B9C0080BC704780B487B000AFF860B9607A60D1
:102BAC00FB681B6A7B61FB681B6A23F01002FB68E5
:102BBC001A62FB689B693B613B6923F470433B6180
:102BCC007B681B033A6913433B617B6923F0A003C9
:102BDC007B61BB681B017A6913437B61FB683A69B3
:102BEC009A61FB687A691A6200BF1C37BD4680BCCB
:102BFC00704780B485B000AF786039607B689B68A3
:102C0C00FB60FB6823F07003FB603A68FB681343BE
:102C1C0043F00703FB607B68FA689A6000BF1437C7
:102C2C00BD4680BC704780B487B000AFF860B96017
:102C3C007A603B60FB689B687B617B6923F47F4314
:102C4C007B613B681A027B681A43BB6813437A6941
:102C5C0013437B61FB687A699A6000BF1C37BD46E1
:102C6C0080BC704780B485B000AF786039607B68F9
:102C7C0093F83C30012B01D1022341E07B68012207
:102C8C0083F83C207B68022283F83D207B681B681C
:102C9C005B68FB607B681B689B68BB60FB6823F010
:102CAC007003FB603B681B68FA681343FB607B682E
:102CBC001B68FA685A607B681B68144A934209D0F7
:102CCC007B681B68B3F1804F04D07B681B68104A8B
:102CDC0093420CD1BB6823F08003BB603B685B68FC
:102CEC00BA681343BB607B681B68BA689A607B68E0
:102CFC00012283F83D207B68002283F83C200023CE
:102D0C0018461437BD4680BC704700BF002C0140EC
:102D1C000004004080B483B000AF786000BF0C3773
:102D2C00BD4680BC704780B483B000AF786000BFF4
:102D3C000C37BD4680BC704770B500260C4D0D4C51
:102D4C00641BA410A64209D100F022F800260A4DFB
:102D5C000A4C641BA410A64205D170BD55F8043B67
:102D6C0098470136EEE755F8043B98470136F2E7F1
:102D7C00D82D0008D82D0008D82D0008DC2D00080F
:102D8C0003460244934200D1704703F8011BF9E754
:102D9C00F8B500BFF8BC08BC9E467047F8B500BF3C
:082DAC00F8BC08BC9E4670470C
:102DB40000000000000000000102030406070809E7
:102DC40002030405060708090A0B0C0D0E0F101068
:042DD40001020000F8
:042DD80031010008BD
:042DDC000D010008DD
:102DE00001000000010000000100000001000000DF
:102DF00001000000010000000100000001000000CF
:102E000001000000010000000100000001000000BE
:102E1000C8000000C8000000C80000000500000055
:102E20000200000003000000050000000200000096
:102E30000300000005000000030000000100000086
:102E40000100000002000000030000000400000078
:0C2E500000127A001000000001000000D9
:0400000508001725B3
:00000001FF
